10VS2509230003    00020250923213650MAD003                                                                                                                                                                                                                                                                                                                                                                                                                                                                                                                                                                                                                                                                                                                                     
300200000000000000023000000000000000000000000MAD200000000001050000        250923                     00S1                                1NEXTIS TECHNOLOGIES SARL           BENALI Mohamed                     0101178000001921001680555501178000001921001680555520250923                                                                                                                        202509232136500                                                                                                                                                                                                                                                                                                                                                             
300200000000000000023000000000000000000000000MAD200000000000720000        250923                     00S1                                1NEXTIS TECHNOLOGIES SARL           ALAMI Fatima                       0101178000001921001680666601178000001921001680666620250923                                                                                                                        202509232136501                                                                                                                                                                                                                                                                                                                                                             
300200000000000000023000000000000000000000000MAD200000000001320000        250923                     00S1                                1NEXTIS TECHNOLOGIES SARL           TAHIRI Hassan                      0101178000001921001680777701178000001921001680777720250923                                                                                                                        202509232136502                                                                                                                                                                                                                                                                                                                                                             
110000000000300000000003090000                                                                                                                                                                                                                                                                                                                                                                                                                                                                                                                                                                                                                                                                                                                                                
