10VS2509230001    00020250923213600MAD001                                                                                                                                                                                                                                                                                                                                                                                                                                                                                                                                                                                                                                                                                                                                     
300200000000000000023000000000000000000000000MAD200000000001050000        250923                     00S1                                1NEXTIS TECHNOLOGIES SARL           BENALI Mohamed                     0101178000001921001680555501178000001921001680555520250923                                                                                                                        202509232136000                                                                                                                                                                                                                                                                                                                                                             
110000000000100000000001050000                                                                                                                                                                                                                                                                                                                                                                                                                                                                                                                                                                                                                                                                                                                                                
