10VS2509230001    00020250923214448MAD001                                                                                                                                                                                                                                                                                                                                                                                                                                                                                                                                                                                                                                                                                                                                     
300200000000000000023000000000000000000000000MAD200000000000850000        250923                     00S1                                1NEXTIS TECHNOLOGIES SARL           TEST Employee                      0101178000001921001680888801178000001921001680888820250923                                                                                                                        202509232144480                                                                                                                                                                                                                                                                                                                                                             
110000000000100000000000850000                                                                                                                                                                                                                                                                                                                                                                                                                                                                                                                                                                                                                                                                                                                                                
